:060000000A128A11FC2F18
:100E6200F0007008831203178D00831603178C138A
:100E72000C14831203170C08F10071080800F1002A
:100E820000308B1B0130F200831603178C184A2F97
:100E92004B2F452F7108831203178D0070088C00A9
:100EA200831603178C130C158B1355308D00AA3043
:100EB2008D008C1472185E2F602F8B17612F8B138D
:100EC200831603170C118C100800F7010F308316DC
:100ED200031386008801831203138801861C722F74
:100EE200732F8C2F0330F00077080A128A114027E3
:100EF2000A128A110130FF007F08F7070330F5005C
:100F02008A30F4005530F300F30B852FF40B852F54
:100F1200F50B852F8C2F83120313061D912F922F11
:100F2200AB2F0530F00077080A128A1140270A1207
:100F32008A110130FF007F08F7070330F5008A307D
:100F4200F4005530F300F30BA42FF40BA42FF50B90
:100F5200A42FAB2F83120313861DB02FB12FCA2FDC
:100F62000730F00077080A128A1140270A128A1104
:100F72000130FF007F08F7070330F5008A30F400E4
:100F82005530F300F30BC32FF40BC32FF50BC32F14
:100F9200CA2F03307706031DCF2FD02FD12FF70191
:100FA20083120313061CD62FD72F6F2FF601760854
:100FB2000A128A1131270A128A1183120313880036
:100FC2000630F5001330F400AD30F300F30BE72FD9
:100FD200F40BE72FF50BE72FEE2F0130FF007F0810
:100FE200F60703307602031CF72FF82FD82F6C2F49
:0E0FF2000A128A11002883010A128A11662F42
:02400E00713F00
:00000001FF
